:0400000089EF2AF06A
:08000800046ED8CF05F0E0CF33
:1000100006F00001E9CF0CF0EACF07F0E1CF08F0DD
:10002000E2CF09F0D9CF0AF0DACF0BF0F3CF12F01C
:10003000F4CF13F0FACF14F000C00EF001C00FF0AF
:1000400002C010F003C011F0F2AA2AEF00F0F2B4DF
:1000500085EF0DF0F2A830EF00F0F2B2C1EF13F02F
:100060000EC000F00FC001F010C002F011C003F08C
:100070000CC0E9FF07C0EAFF078E08C0E1FF09C016
:10008000E2FF0AC0D9FF0BC0DAFF12C0F3FF13C0B2
:10009000F4FF14C0FAFF045006C0E0FF05C0D8FF0B
:1000A000100007AE03D0F2CF0DF0F29EF76AC40F36
:1000B000F66E000EF7220900F55007AE02D00DBE15
:1000C000F28E1200000000000000005F000000033C
:1000D000000300143E143E14242A7F2A12433308DE
:1000E000666136495522500005030000001C22417C
:1000F000000041221C0014083E081408083E0808AD
:100100000050300000080808080800606000002067
:10011000100804023E5149453E0004027F0042613E
:1001200051494622414949361814127F1027454546
:1001300045393E4949493201017109073649494962
:1001400036264949493E0036360000005636000042
:10015000081422410014141414140041221408023B
:10016000015109063E4159555E7E0909097E7F49C4
:100170004949363E414141227F4141413E7F494903
:1001800049417F090909013E4141493A7F08080870
:100190007F00417F4100304040403F7F08142241B2
:1001A0007F404040407F020C027F7F0204087F3E78
:1001B0004141413E7F090909061E2121215E7F0937
:1001C0000909760007AE03D0F2CF0DF0F29EF76A70
:1001D000E60FF66E010EF7220900F55007AE02D0C9
:1001E0000DBEF28E1200264949493201017F0101FC
:1001F0003F4040403F1F2040201F7F2010207F4174
:10020000221C224107087008076151494543007FBD
:1002100041000002040810200000417F0004020198
:100220000204404040404000010204002054545465
:10023000787F444444383844444444384444447FF8
:10024000385454541804047E0505085454543C7F13
:100250000804047800447D40002040443D007F10A5
:1002600028440000417F40007C047804787C080426
:10027000047838444444387C1414140808141414C2
:100280007C007C080404485454542004043F444433
:100290003C4040207C1C2040201C3C4030403C44E2
:1002A000281028440C5050503C4464544C440008DE
:1002B00036414100007F0000414136080002010242
:1002C0000402F2CF0DF0F29EDA0FF66E020EF72264
:1002D0000900F5500DBEF28E1200FFFFFFFFFFFF79
:1002E00003030303030303030303030303030303DE
:1002F0000383C3C3E3E3F3F3F3F3F3FBFBFBFBFB86
:10030000FFFFFDFDFCFCFEFEFEFEFFFFFFFFFFFF0B
:10031000FFFFFFFFFFFFFFFFFFFFFFFFFFFFFFFFED
:10032000FFFFFFFFFFFFFFFFFFFFFFFEFEFEFCFCE6
:10033000FCFDFDFFF3FBFBFBFBFBF3F3F3F3F3E34C
:10034000C3C383030303030303030303030303037D
:100350000303030303FFFFFFFFFFFFFFFFFFFFFF99
:100360000000000080E0E0F0F0F8FCFCFEFEFFFF83
:10037000FFFFFFFFFFFFFFFFFFFFFFFFFFFFFFFF8D
:10038000FFFFFFFFFFFFFFFFFFFFFFFFFFFFFFFF7D
:10039000FFFFFFFFFFFFFFFFFFFFFFFFFFFFFFFF6D
:1003A000FFFFFFFFFFFFFFFFFFFFFFFFFF7F1F0FAD
:1003B00001010107070F1F1FFFFFFFFFFFFFFFFFE7
:1003C000FFFFFFFFFFFFFEFEFCFCFCF0F0E0E0C0E3
:1003D0008000000000FFFFFFFFFFFFFFFF1F9FEFF8
:1003E000F0FCFFFFFFFFFFFFFFFFFFFFFFFFFFFF2F
:1003F000FFFFFFFFFFFFFFFFFFFFFFFFFFFFFFFF0D
:10040000FFFFFFFDF1F1E1C1C1010101010181E146
:10041000FFFFFFFFFFFFFFFFFFFFFFFFFFFFFF3FAC
:100420001F030101010101010181C1C1C1C0C0C09F
:10043000C0C0C0C0C0F0FCFFFFFFFFFFFFFFFFFF19
:10044000FFF7FFEFDF1F3F3FFFFFFFFFFFFFFFFF54
:10045000FFFFFCF8F0EFCFFFFFFFFF0FF0FFFFFF04
:10046000FFFFFFFFFFFFFFFFFFFFFFFFFFFFFFFF9C
:10047000FFFFFFFFFFFFFFFFFFFFFFFFFFFFFFFF8C
:10048000FFFFFFFFFFFFFFFFFFFFFFFEFCFEFFFF81
:10049000FFFFFFFFFFFFFFFFFFFFFF1F0F07000032
:1004A000000000000000C0F0FEFFFFFFFFFFFFFFA5
:1004B000FFFFFFFFFFFFFFFFFFFFFFFFFFFFFFFF4C
:1004C000FFFFFFFF7F0E000001C3FFFFFFFFFFFFE5
:1004D000FFFFFFFFFFFFFFF001FFFFFCC33F7FFFB8
:1004E000FFFFFFFFFFFFFFFFFFFFFFFFFFFFFFFF1C
:1004F000FFFFFFFFFFFFFFFFFFFFFFFFFFFFFFFF0C
:10050000FFFFFFFFFFFFFFFFFFFFFFFFFFFFFFFFFB
:10051000FFFFFFFFFFFFFFFF1F07030000000000BA
:1005200000000000E0FEFFFFFFFFFFFFFFFFFFFFF7
:10053000FFFFFFFFFFFFFFFFFF7F7F3F3F1F1F8783
:100540008783C1E1E0F0F8FCFFFFFFFFFFFFFFFF43
:10055000FFFFFFFFFFFFFFC3E0FFFFFFFFFFFEF80E
:10056000071F1F1F3FFFFFFFFFFFFFFFFFFFFFFFF3
:10057000FFFFFFFFFFFFFFFFFFFFFFFFFFFFFFFF8B
:10058000FFFFFFFFFFFFFFFFFFFFFFFFFFFFFFFF7B
:10059000FFFFFFFFFFFFFFFFE0C0C0000000000003
:1005A000000000000107070F0F0F0F8F8F87C7C7CD
:1005B000C7E7E7E1E1E0E0E0F0F8F8F8FCFEFFFF74
:1005C000FFFFFFFFFFFFFFFFFFFFFFFFFFFFFFFF3B
:1005D0003F1F1F1F07F8F8FFFFFFFFFFFFFFFFFF91
:1005E0000000000000010103070F0F0F1F1F9FFFF6
:1005F0007F7F7FFFFFFFFFFFFFFFFFFFFFFFFFFF8B
:10060000FFFFFFFFFFFFFFFFFFFFFFFFFFFFFFFFFA
:10061000FFFFFFFFFFFFFFFFFFFFFFFFFFFEFEFEED
:10062000FEFEFEFEFEFEFEFEFFFFFFFFFFFFFFFFE2
:10063000FFFFFFFFFFFFFFFFFFFFFFFFFFFFFFFFCA
:10064000FFFF7F7F7F1F1F1F0F0F0F070301010099
:100650000000000000FFFFFFFFFFFFFFFFFFFFFFA5
:10066000C0C0C0C0C0C0C0C0C0C0C0C0C0C0E1E346
:10067000E3E2E2E0FDFDFFFFFBFBF3E7E7EFEFEF77
:10068000FFFFFFFFFFDFDFDF9F9F9FBFBFBFBF7F7A
:100690007F7F7F7F7F7F7F7F7F7F7F7F7F7F7F7F6A
:1006A0007F7F7F7F7F7FBFBFBFBF9F9F9FDFDFDFDA
:1006B000DFDFDFDFDFCFCFC7C7C3C3C3C3C3C3C160
:1006C000C0C0C0C0C0C0C0C0C0C0C0C0C0C0C0C02A
:1006D000C0C0C0C0C0FFFFFFFFFFE80FF66E060EF0
:1006E000F7220900F5501200FFFFFFFFFFFFFFFF99
:1006F000FFFFFFFFFFFFFFFFFFFFFFFFFFFFFFFF0A
:10070000FFFFFFFFFFFFFFFFFFFFFFFFFFFFFFFFF9
:10071000FFFFFFFFFFFFFFFFFFFF7F8FEFCFDFDF59
:10072000DF9F1F3FFFFFFFFFFFFFFFFFFFFFFFFFF9
:10073000FFFFBFBFFFFFFFFFFFFFFFFFFFFFFFFF49
:10074000FFFFFFFFFFFFFFFFFFFFFFFFFFFFFFFFB9
:10075000FFFFFFFFFFFFFFFFFFFFFFFFFFFFFFFFA9
:10076000FFFFFFFFFFFFFFFFFFFFFFFFFFFFFFFF99
:10077000BFDF7FFFFFFFFFFFFFFFFF7F3F9FE7F729
:10078000FFFFFFFFFF7F7FBFBFBFBF9FFFFFFFFFD9
:10079000FFFFFFFFFFFFFFFFEFA3A0AFA7B7B3BBB4
:1007A000BDBCBEBBBBBABAB8BCBFBBB8BCBABCBF91
:1007B000BBB8BCBFBFB9B8BABEBEBBB8BCBAB8BC88
:1007C000BABCBBBBBABAB8BCBFBBB8BCBAB8BCBF7A
:1007D000BFBFBFBBBDFFFFFFFFFFFFFFFFFFFFFF6F
:1007E000FFFFFFFFFFFFFFFFFF07FFF7F7FFEBFE36
:1007F00011FFFFFFFEFFFDFFF387F8FEFFFFFFFF86
:10080000FFFF01FCFEFEFFFFFFFFFFFF7FFFFF8FEB
:100810009BED84FCFFFFFFFFFFFFFFFFFFFFFFFFDC
:10082000FFFFFF0F07B7BFBFBFBFBF1F07E7FFFF38
:10083000FFFFFFFF7F3F9FCFEFEFE7F7F7F7F7FFF0
:10084000FFFFFFFFFFFFFFBFBFBFBFBFFF7F0F87E0
:10085000F7FFFFFF7F0F87F7FFFFFFFFFFFFFFFFA0
:10086000FFFFFFFFFFFFFFFFFFCF1B7FFFFFFFFF2C
:1008700000FFFFFFFFFFFF1FC1FFFFFFFFFF9FE71D
:10088000FDFDFFFF3F3FE7FBFDFDFEFEFFFFFFFF1E
:10089000FF53F8FFFFFFFFFFFFFFFFFFFFFFFFFF1B
:1008A000DFC7E0F8FFFFFFFFDFC7E0F8FFE7E7FF84
:1008B000FFFFFFF1E0CE5F5F5FDFDFCFEFFFF7F31A
:1008C000F2F2F0F89F87A1A8AA88CCFEF3F0F8FF17
:1008D000F1F0FEF3F0F8F7F3F2F2F0F8FFF7F0F8CA
:1008E000FEFEFFFFFFFFFFFFFFFFFFE08F7FFFFF29
:1008F000F3C7BF7FFFFFFFE00FFFFFFFFF80FF3F5A
:100900008FF3F9FCFFFFFFFFFFFFFFFFFFFFFF7FFC
:1009100087FCFFFFFFFFFFFFFFFFFF7F3F0F0FFF82
:10092000FFFF7F3F0F07F7FFFFFFFFFFFFFF7F0F77
:1009300087F7FFFFFFFFFFFFFFFFFFFFFFFFFFFF47
:10094000FFFFFFDFDFFF7F0F87F7FFFFFFFFFFFFE7
:10095000FFFFFFFFFFFFFFFFFFFFFFFFFFFFFFFFA7
:10096000FFFFFFFFFFFFFFFFFFFFFFFFFFFCF9C7D8
:10097000BF3FFFFFCE1F7F7FFF9FFF011DFFFEFEDA
:10098000FFFFFFFFFFFFFFFFFFFF7F3FC7F3F8FE03
:10099000FFFFFFFFFFFFFFFFFF4F43707C7C6063A3
:1009A00071784640787F7B717474747C7F73707843
:1009B0007076777773727270787F777078767078E8
:1009C0007F73707C7F7370787076777F7F7F7F779F
:1009D000757D7FFFFFFFFFFFFFFFFFFFFFFFFFFFB3
:1009E000FFFFFFFFFFFFFFFFFFFFFFFFFFFFFFFF17
:1009F000FFFFFCFFFDFFEFFCFCFFC70607C33FFF47
:100A0000FFFFFF1FDFDFFFE3FBF8FCFFFFFFFFFF40
:100A1000FFFFFFFFFFFFFFFFFFFFFFFFFFFFFFFFE6
:100A2000FFFFFFFFFFFFFFFF1F09E9FFFFFFFFFFC2
:100A3000FFFF0F0FAFAFAFAFEFFFFF1F0F2F8FCF36
:100A4000EF7F1F9FCFEFEFE7F7FFFF7F3F9FDF0FA6
:100A50000FFFFFFF1F0F0F3FFF1F0FEFFFFFFFFFF6
:100A6000FFFFFFFFFFFFFFFFFFFFFFFFFFFFFFFF96
:100A7000FFFFFFFFFFFFFFFFFFFFFFFAF2C7188234
:100A8000E1F9F9FCFAF8F9FCF8FAFAFAFAFAFAFAE2
:100A9000FAF2F6F4FCFAFAFAFAFAFAFAF8F9F9F9CB
:100AA000F9FDFFFFFFFFFFF8F8FEF9F9FFFFFFFF79
:100AB000FFF0F0F7F7F7F7F7FFFFF9F8FEF8F8FFA8
:100AC000FFF8F8FBFBFBFBFBFBFBF9FCFEFCFDFC72
:100AD000FCFFFFF8F8FFFEFCF9F8FEFFFFFFFFFF49
:100AE000FFFFFFFFFFFFFFFFF60FF66E0A0EF72274
:100AF0000900F5501200FFFFFFFFFFFFFFFFFFFFA0
:100B0000FF5F0F8FEFFFFFFFFFFFFFFFFFFFFFFF05
:100B1000FFFFFFFFFFFF9F9FCFEFCF0F1FFF7F3F25
:100B20009FCFEFEF0F1FFFFFFFDF5F1F0FCFFFFF15
:100B3000FF9F9FCFEFCF0F1FFFFFFFFFFFFFFFFFC5
:100B4000FFFFFFFFFFFFFFFFFFFFFFFFFFFFFFFFB5
:100B5000FFFFFFFFFFFFFFFFFFFFFF7FFFFFFFFF25
:100B6000FF7FBFDFEFEF07F70FFFFFFFFFFFFFFF85
:100B7000FFFFFFFFFFFFFFFFFFFFFFFFFFFF3F0F35
:100B80004170FA3B01C1633B8941717F0381F9C91F
:100B9000CDEFEF7F7F3F9FCFE77178FEFF03007CB3
:100BA000FF7F1F83E0FCFFFF1F03C0F0FEFF7F7F7E
:100BB0003F9FCFE77178FEFFFFFFFFFFFFFFFFFFC3
:100BC000FFFFFFFFFFFFFFFFFFFF7F7F7F7F7F7F35
:100BD0007F7FFFE7EFFFFFFFFFFFFFFFFFFF1FF339
:100BE000FC009FF71BEFF6D001077FFFFFFFFFFF21
:100BF000FFFFFFFFFFFFFFFFFFFFFFFFFFFFFEFE07
:100C0000E6C3D8CCCDFCFEFFFFFEFEFEFFFFFFFFDC
:100C1000FFFFFEFEFEFEFEFEFEFEFFFFFFFFFEFEEE
:100C2000FEFEFFFFFFFFFFFEFEFFFFFFFFFEFEFEDB
:100C3000FEFEFEFEFEFFFFFFFFFFFFFFFFFFFFFFC9
:100C4000FFFFFFFFFFFFFFF9FEF4C9C3071F5F7F30
:100C500076F583B7767F7D7B7BF70F85070F045F83
:100C6000FEEFF7935CF5EDFDF6F97877E7CFFFFF40
:100C7000FFFFFFFFFFFFFFFFFFFFFFFFFFFFFFFF84
:100C8000FFFFFFFFFFFFFFFFFFFFFFFFFFFFFFFF74
:100C90007F3F0773870F1F3FFFFFFFFFFFFFFFFF30
:100CA000FFFFFFFFFFFFFFFFFFFFFFFFFFFFFFFF54
:100CB000FFFFFFFFFFFFFFFFFFFFFFFFFFFFFFFF44
:100CC000FFFFFFFFFFFFFFFFFFFFFFFEFDFAF4F452
:100CD000F18BE9EAF3B1DAFB79F60701C0FCF0C069
:100CE0001E7CF8F8F1F3F7F2FBFBF1F6FAFCFFFFDC
:100CF000FFFFFFFFFFFFE0850919316160C0C08081
:100D000081010000010001030303070F1F3FFFE102
:100D100000000000DF3000C07F3F1F0F0F0F0F07E4
:100D2000070F0787872311090501FDFFFFFFFFFF5D
:100D3000FFFFFFFFFFFFFFFFFFFFFFFFFFFFFFFFC3
:100D4000FFFFFFFFFFFFFFFFFFFFFFFFFFFFFFFFB3
:100D5000FFFCFBF7F0F5F5F1FEFEFEFFFFFFFFCF16
:100D600087020387EFFFFFFFFFFFFFFFFFFFFFFF8C
:100D7000FFFFFFFFFFFFFFFFFFFEF4600000010128
:100D8000030307070E1E1C3C387070E0E0C08001B2
:100D900003060C3CFDBE07010000000080C060306F
:100DA0001C0E070100000040F0FCF0F1F1C3878742
:100DB0000F1F1F1F3FFF7F7FFFFFFFFFFFFFFFFF93
:100DC000FFFFFFFFFFFFFFFFFFFFFFFFFFFFFFFF33
:100DD000FFFFFFFFFFFFFFFFFFFFFFFFFFFF7F1F83
:100DE000080000F0F9FFFFFFFFFFFFFFFFFFFFFF1D
:100DF000FFFFFFFFFFFFFFFFFFFFFFFFFEE4C080DD
:100E00008000000000000000000000000101030756
:100E10000E1C78C000FFFCF8FAFAF3F1F9F8F8F8C4
:100E2000FCFEF0F3E7E7EEDCBC3171E3C7C71F1F40
:100E30001E7C7C7CF8F0E0F0F0F3E7EFCFCF8F9FE3
:100E40001F1F1F3F3F3F7F7F3F7FFF7F3F3F7FFF52
:100E50003F3F3F3F7F7F3FBF9F8F8FE3E3E0F8F847
:100E6000FCFFFFFFFFFFFFFFFFFFFFFFFFFFFFFF95
:100E7000FFFFFFFFFFFFFFFFFFFFFFFFFFFFFFFF82
:100E8000FFFFFEFEFCFCF8F8F8F8F0F0F0F0F0F0F0
:100E9000F0F8F8F8FEFFFFFFFFFFFFFFFFFFFFFF87
:100EA000FFFFFFFFFFFFFFFFFFFFFEFCF9F1F3E78E
:100EB000C7CCF8B83C7BF3F7E7EF8F8F1F1F3F7F5E
:100EC0003F7FFF7E7EFEFEFCFCFCFCF8F8F8F8FCA1
:100ED000F8F8F87C7E3F1F3F878781F0F0F0FFFF36
:100EE000FFFFFFFFFFFFFFFFFFFFFFFFFFFFFFFF12
:100EF000FFFFFFFFFFFFF2CF0DF0F29E0E0FF66E29
:100F00000F0EF7220900F5500DBEF28E1200000000
:100F100000000000000000000000000000000000D1
:100F200000000000000000000000000000000000C1
:100F300000000000000000000000000000000000B1
:100F400000000000000000000000000000000000A1
:100F50000000000000000000000000000000000091
:100F60000000000000000000000000000000000081
:100F70000000000000000000000000000000000071
:100F80000000000000000000000000000000000061
:100F90000000000000000000000000000000000051
:100FA0000000000000000000000000000000000041
:100FB0000000000000000000000000000000000031
:100FC0000000000000000000000000000000000021
:100FD0000000000000000000000000000000000011
:100FE0000000000000000000000000000000000001
:100FF00000000000000000000000000000000000F1
:1010000000000000000000000000000000000000E0
:1010100000000000000000000000000000000000D0
:1010200000000000000000000000000000000000C0
:1010300000000000000000000000000000000000B0
:1010400000000000008080000000000000000000A0
:101050000000000000000000000000000000000090
:101060000000000000000000000000000000000080
:101070000000008080C0C0C0C0C0C0C0C0C0C08070
:1010800080000000000000000000000000000000E0
:101090000000000000000000000000000000000050
:1010A0000000000000000000000000000000000040
:1010B00000000000000000000000C0C0C0E4E6E640
:1010C000E640040F1FFAFCFCEEEEE2000000000018
:1010D0000000000000000000000000000000000010
:1010E000000000000000000000000000000000E020
:1010F000F8FEFFFF7F1F0F0F07070707070F1F3FB0
:10110000FFFFFEFCF8C0000000000000000000002F
:1011100000000000000000000000000000000000CF
:1011200000000000000000000000000000000000BF
:1011300000808080E0E0F8F8FE7EBFDFEFF77B3DC7
:101140001E06000080381F1F1C0C0000000000005D
:10115000000000000000000000000000C0C0C0C08F
:10116000C0C0C0C0C0C0C0C0C0C0C0C0C0C0C0CF70
:10117000CFCFCFCFC0C0C0C0C080000000000000F3
:101180000F0F0F0F0F0F0000000000000000000005
:10119000000000000000000000000000000000004F
:1011A00080C0C0E0E0F0F0F0F0F0F3F2E0E0CCCE90
:1011B0001F3F3F9FCFE7733D1E0F07030100000055
:1011C0000000040700000000000000000000000014
:1011D000000000000000000000000000FFFFFFFF13
:1011E000FFFFFFFFFFFFFFFF1F0F0F070F0F1FFF87
:1011F000FFFFFFFFFFFFFFFFFFFF000000000000F9
:1012000000000000000000000000000000000000DE
:101210000000000000000000000000000000FCFED4
:10122000FFFFFF7F7F7FFFFFFFFFFFFFFFFFFFFF4E
:10123000FFFEF801010000000000000000000000B7
:10124000000000000000000000000000000000009E
:10125000000000000000000000000000FFFFFFFF92
:10126000FFFFFFFFFFFFFFFFDEC0C0C0C0CCFFFFDE
:10127000FFFFFFFFFFFFFFFFFFFF00000000000078
:10128000000000000000000000000000000000005E
:101290000000000000000000000002000000071F26
:1012A0003F7FFDF0F0F0F8FDFFFFFFFFFFFFFF7F46
:1012B0003F1F0700000000000000000000000000C9
:1012C000000000000000000000000000000000001E
:1012D0000000000000000000000000000F0F0F0FD2
:1012E0000F0F0F0F0F0F0F0F0F0F0F0F0F0F0F0F0E
:1012F0000F0F0F0F0F0F0F0F0F0700000000000060
:101300000000000000000000000000000000F2CF1C
:101310000DF0F29E260FF66E130EF7220900F5501F
:101320000DBEF28E1200FFFFFFFFFFFFFF03FFFF66
:101330001FF7FBFFFDFDFDBFBBDFFFFFFFFFFFFF53
:10134000FFFFFFFFFFFFFFFFFFFFFFFFFFFFFFFFAD
:10135000FFFFFFFFFFFFFFFFFFFFFFFFFFFFFFFF9D
:10136000FFFFFFFFFFFFFFFFFFFFFFFFFFFFFFFF8D
:10137000FFFFFFFFFFFFFFFFFFFFFFFFFFFFFFFF7D
:10138000FFFFFFFFFFFFFFFFFFFFFFFFFFFFFFFF6D
:10139000FFFFFFFFFFFFFFFFFFFFFFFFFFFFFFFF5D
:1013A000FFFFFFFFFFFFFFFFFFFFFFFFFF00FFFF4C
:1013B000FFFDFBF7FF9F7FFFFFFFFFFF3FFFF7FFF3
:1013C000FFFEFF3F7FFF7F3FFFFFFFFFFFFFFFFFAE
:1013D000FFFFFFFFFFFFFFFFFFFFFFFFFFFFFFFF1D
:1013E000FFFFFFFFFFFFFFFFFFFFFFFFFFFFFFFF0D
:1013F000FFFFFFFFFFFFFFFFFFFFFFFFFFFFFFFFFD
:10140000FFFFFFFFFFFFFFFFFFFFFFFFFFFFFFFFEC
:10141000FFFFFFFFFFFFFFFFFFFFFFFFFFFFFFFFDC
:10142000FFFFFFFFFFFFFFFFFFFFFFFFFF00FFFFCB
:101430003FFFFFFFFF7FFFF9C77FFFE1FFFFFFFFD8
:10144000FFFFF7F2F0FAFEFEFFFFFF3F1F1F1FFF37
:101450007F1F9F5F0F0FFFFFFFFFFFFFFFFFFFFFDC
:10146000FFFFFFFFFFFFFFFFFFFFFFFFFFFFFFFF8C
:10147000FFFFFFFFFFFFFFFFFFFFFFFFFFFFFFFF7C
:10148000FFFFFFFFFFFFFFFFFFFFFFFFFFFFFFFF6C
:10149000FFFFFFFFFFFFFFFFFFFFFFFFFFFFFFFF5C
:1014A000FFFFFFFFFFFFFFFFFFFFFFFFFF00FFFF4B
:1014B00000FFDF3FFFFFFCF0871300FFFFFFFFF19E
:1014C000FBFFFFFFA7FFFFFFFFFFF0F0E2808C189C
:1014D00018284C1E7EFFFFFFFFFFFFFFFFFFFFFFEF
:1014E000FFFFFFFFFFFFFFFFFFFFFFFFFFFFFFFF0C
:1014F000FFFFFFC19B4B0303078F3F1F9F4F8FFFD2
:10150000FFFFFFFFFFFFFFFFFFFFFFFFFFFFFFFFEB
:10151000FFFFFFFFFFFFFFFFFFFFFFFFFFFFFFFFDB
:10152000FFFFFFFFFFFFFFFFFFFFFFFFFF00FFFFCA
:1015300000FFFFFFFFEF3FFFFFFC00FFFF7FFFFF0C
:101540007F3F8FC87F77FBFFFFFFDFDFDFFFFFFFFE
:10155000FFFF7FFFFFFFFF7F7FFFFFFFFFFFFFFF1B
:10156000F7FF7FFEF1F2F3FFFFFFFFFFFFFFFFFF3B
:10157000FFFBF9F1F0F0F0F0F1F1F9F8FCFEFFFFFC
:10158000FFFFFFFFFFFFFFFFFFEFFFFFFFF1F5F1A1
:10159000F3FFFFFFFFFFFFFFFFFFFFFFFFFFFFFF67
:1015A000FFFFFFFFFFFFFFFFFFFFFFFFFF00FFFF4A
:1015B00000FFFFFFFFFFFE077F07F07138888700FD
:1015C00080C9B2B7BFFFFFDFDEFFDFDF5F7F7E6F67
:1015D0006F43080163464303A185CDE5FFBFFBFBD5
:1015E000FDEFFFFFFFFFFFFFFFFFFFFFFFFFFFFF1D
:1015F000FFFFFFFFFFFFFFFFFFFFFFFFFFFFFFFFFB
:101600003FF3FFFFF3FFFFFFDFFFFFFBFBFFFFFFEA
:10161000FF7F7FFFFFFFFFFF7F7F7F7F7FFFFFFF5A
:10162000FFFFFFFFFFFFFFFFFFFFFFFFFF00FFFFC9
:1016300000FFDB3B1E040040200080F64D4FCB64D2
:10164000EFE36303EFEDE5FFDEBEBEBCFCFBFBF7A3
:10165000E7CFFEF8F8F9FAFCF8FFFFFFFBFFFFFF0A
:10166000FFFFFFFF7F5F07A393CB43637B7F7FFF7A
:10167000FFDF9FDF9FBFFFFFFFFFFBFFF7E79FFF3E
:1016800088FFFFFFFFFFFFFEEFFFFF3FFFFFFFFFB2
:10169000FFF0E0C488A3170002808888DEFFFFFF08
:1016A000FFFFFFFFFFFFFFFFFFFFFFFFFF00FFFF49
:1016B000007F40083C6C6617363577757C64755F33
:1016C0007F777F7F7F7F767E7F3E614353477F7F3B
:1016D0004F7F7F7F7F7F7F7F7F7F7F7F7F7F7F7F4A
:1016E0007F7F7F79704060737C787064646E7C6803
:1016F0007F7F7F7F7F7F7F7F7F7FFCC3FF3FE7F818
:10170000FFFFCFFDCFFFBFFFBDB3BDDFEFF7DBDFD7
:10171000FFEFFFFFEFEF7FFFFFFFFFFFFFFFFFFF89
:10172000FFFFFFFFFFFFF2CF0DF0F29EF76A400FC1
:10173000F66E170EF7220900F5500DBEF28E12005C
:101740002121212048415441202121210000F2CFB4
:101750000DF0F29EF76A680FF66E170EF722090079
:10176000F5500DBEF28E120054656B7261722064EA
:10177000656E652E2E2E0000F2CF0DF0F29EF76AF8
:10178000920FF66E170EF7220900F5500DBEF28E7D
:101790001200696C7961732042657900F2CF0DF017
:1017A000F29EF76AB60FF66E170EF7220900F55093
:1017B0000DBEF28E120048616C756B204265790097
:1017C000F2CF0DF0F29EF76ADA0FF66E170EF722DF
:1017D0000900F5500DBEF28E120042696720534594
:1017E000462E2E2E0000F2CF0DF0F29EF76A000F6B
:1017F000F66E180EF7220900F5500DBEF28E12009B
:10180000416264756C6C616820422E00F2CF0DF06D
:10181000F29EF76A260FF66E180EF7220900F550B1
:101820000DBEF28E120053656E657220426579001E
:10183000F2CF0DF0F29EF76A4A0FF66E180EF722FD
:101840000900F5500DBEF28E1200452E452E542E85
:10185000412E0000F2CF0DF0F29EF76A6E0FF66E89
:10186000180EF7220900F5500DBEF28E12005461D9
:101870006E696D73697A0000F2CF0DF0F29EF76A1F
:10188000920FF66E180EF7220900F5500DBEF28E7B
:1018900012004B4152540000F2CF0DF0F29EF76A55
:1018A000B20FF66E180EF7220900F5500DBEF28E3B
:1018B00012003C2052464944204B4150492041638C
:1018C0006D61203E0000F2CF0DF0F29EF76AE00F4E
:1018D000F66E180EF7220900F5500DBEF28E1200BA
:1018E0005475726B2054656C656B6F6D2054656B1D
:1018F0006E696B00F2CF0DF0F29EF76A0E0FF66E76
:10190000190EF7220900F5500DBEF28E1200456E39
:10191000647573747269204D65732E204C6973650C
:1019200073690000F76A340FF66E190EF72209008A
:10193000F55012002D4F4752454E43494C45522D0C
:101940000000F76A520FF66E190EF7220900F550E3
:101950001200312D4675726B616E2041544349006F
:10196000F76A700FF66E190EF7220900F550120093
:10197000322D4D757374616661204F5A5455524B28
:101980000000F76A920FF66E190EF7220900F55063
:101990001200332D4572656E2047554455520000A4
:1019A000F76AB00FF66E190EF7220900F550120013
:1019B000342D4B656D616C657474696E20544F50A5
:1019C00054415300F76AD40FF66E190EF72209003E
:1019D000F5501200352D45726F6C204F5A545552F8
:1019E0004B00F76AF20FF66E190EF7220900F55058
:1019F0001200362D4F6E757220504F4C41544241AB
:101A00005300F76A120FF66E1A0EF7220900F5500E
:101A10001200372D4962726168696D205345525436
:101A2000534152490000F76A360FF66E1A0EF7223C
:101A30000900F5501200546573656B6B7572206573
:101A40006469796F72757A00F76A580FF66E1A0E2C
:101A5000F7220900F55012002D2045455441202D54
:101A60000000F76A720FF66E1A0EF7220900F550A1
:101A70001200475255500000F76A880FF66E1A0E92
:101A8000F7220900F5501200524649440000F76A57
:101A90009E0FF66E1A0EF7220900F55012003F0055
:101AA000F76AB00FF66E1A0EF7220900F550120011
:101AB0005800F2CF0DF0F29EF76ACC0FF66E1A0EB8
:101AC000F7220900F5500DBEF28E12002D4B415049
:101AD000494C41522D00F2CF0DF0F29EF76AF00F03
:101AE000F66E1A0EF7220900F5500DBEF28E1200A6
:101AF00021204143494C444920210000566F6C7419
:101B00003D25312E326620560000F62BD8B4F72B37
:101B1000F751000806E2FF0A03E1F651F40801E27A
:101B2000FF003C0ED76EAF0ED66EF29430EF00F091
:101B3000020EEA6E080EE96EEF500DE0060E016E21
:101B4000006A002EFED7012EFBD77B0E006E002E02
:101B5000FED7EF2EF3D71200000E956E94948B945F
:101B600002012A5303E0949A8B8A02D094988B88BE
:101B700000D000D00000956A2BC28CFF00D000D0AE
:101B8000000094928B8200D000D0000094928B923F
:101B900094988B98949A8B9A000112000201096B19
:101BA0000951070840E394968B962A6B400E2B6FE1
:101BB0000001D2DF010E02012A6F400E2B6F0001DF
:101BC000CBDF02010951B8090B6F2A6B2B6F0001A3
:101BD000C3DF02010951B8090B6F010E2A6F0BC256
:101BE0002BF20001B9DF94968B8602010A6B0A5131
:101BF0003F0817E30851FF0DF3CF0BF22A6B0BC21E
:101C00002BF20001A9DF02010851FF0DF3CF0BF207
:101C1000010E2A6F0BC22BF200019EDF02010A2B7C
:101C2000E6D7092BBDD700011200FF0E956E9494E4
:101C30008B840201295303E0949A8B8A02D09498F2
:101C40008B8800D000D0000094928B8200D000D00E
:101C50000000956883CF2AF294928B9294988B9887
:101C6000949A8B9A2AC201F0000112000201279176
:101C700023513F0803E2400E235F278194968B9601
:101C8000239F238D000E27B1010E286F2A6F23C2D8
:101C90002BF2000161DF000E020127B1010E286F57
:101CA0002431006E003200321F0E00160050BF0BB0
:101CB000B809296F28C22AF22B6F00014DDF9496D4
:101CC0008B86000E020127B1010E286F296F0001DB
:101CD000ACDF000E020127B1010E286F296F000151
:101CE000A4DF01C026F20201252D0FD02451070BDD
:101CF000286F010E006E2851016E04E0D890003666
:101D0000012EFCD7005026130FD02451070B286F4B
:101D1000010E006E2851016E04E0D8900036012EAD
:101D2000FCD70050FF0A261794968B96000E27B119
:101D3000010E286F2A6F23C22BF200010DDF94964B
:101D40008B86000E020127B1010E286F2A6F26C272
:101D50002BF2000101DF1200010E02011C6F1D6F4A
:101D6000226B1351155D236F235123AF03D0000E57
:101D7000D8802355036A1A6F03C01BF21451165DF5
:101D8000236F235123AF03D0000ED8802355036A5D
:101D9000186F03C019F21351155D01E21C6914514B
:101DA000165D01E21D6919511B5D3AE303E118510B
:101DB0001A5D36E3D890183719371A51185D006E3E
:101DC0001B51195900C01EF21F6F1A511E5D206F62
:101DD0001B511F59216F1B5303E122511A5D1FE351
:101DE00013C223F214C224F217C225F200013EDF0F
:101DF00002011FAF08D018511E2719511F231C5173
:101E00001325136F0AD020511E2721511F231C5167
:101E10001325136F1D511425146F222BDCD735D0D9
:101E2000D8901A371B3718511A5D006E19511B597B
:101E300000C01EF21F6F18511E5D206F19511F59EF
:101E4000216F195303E12251185D1FE313C223F2DE
:101E500014C224F217C225F2000108DF02011FAFED
:101E600008D01A511E271B511F231D511425146F12
:101E70000AD020511E2721511F231C511325136FF7
:101E80001D511425146F222BDCD700011200020112
:101E90000C532EE00A51085D05E208C20FF20AC297
:101EA00010F204D00AC20FF208C210F20B51095D01
:101EB00005E209C211F20BC212F204D00BC211F2F8
:101EC00009C212F20F51105D12E311C20EF20E514F
:101ED000125D0BE30FC223F20EC224F20DC225F2F3
:101EE0000001C4DE02010E2BF2D70F2BEBD72ED050
:101EF00008C213F209C214F20AC215F209C216F29C
:101F00000DC217F2000128DF08C213F20BC214F24F
:101F10000AC215F20BC216F20DC217F21DDF08C27B
:101F200013F209C214F208C215F20BC216F20DC266
:101F300017F212DF0AC213F209C214F20AC215F232
:101F40000BC216F20DC217F207DF020100011200E8
:101F50000BC203F002010AC2E9FF0BC2EAFFEF5213
:101F6000D8B4D1D00BC203F00AC2E9FF0BC2EAFF1A
:101F7000EF50520827E30BC203F00AC2E9FF0BC27D
:101F8000EAFF200EEF5C050DF350036A176F020E97
:101F9000EA6E120EE96E1B6B17C21AF2F2CF18F23C
:101FA000F29E050E016EF76A1751000151EC00F028
:101FB0000A000900F5CFEEFF012EFBD7020118BF82
:101FC000F28E35D00BC203F00AC2E9FF0BC2EAFF62
:101FD000EF507E0827E30BC203F00AC2E9FF0BC2F1
:101FE000EAFF530EEF5C050DF350036A176F020E04
:101FF000EA6E120EE96E1B6B17C21AF2F2CF18F2DC
:10200000F29E050E016EF76A17510001E2EC00F036
:102010000A000900F5CFEEFF012EFBD7020118BF21
:10202000F28E05D0126B136B146B156B166B0BC213
:1020300003F00A51E96E03C0EAFFEF500A0A0001FB
:1020400003E0070A09E00CD002010C51070DF35020
:10205000010F092751D000010201086B4DD000018A
:1020600002010C51050DF35008257F0806E2086BAC
:102070000C51070DF350010F09270E6B0E51040888
:102080003BE30F6B0F51060833E3036A0E51120F47
:10209000E96E020E0320EA6EEFCF17F217C200F0CE
:1020A0000F51016E04E0D8900032012EFCD700A041
:1020B0001DD0106B0C51105D19E2116B0C51115DAC
:1020C00013E211510825176F0F510C03F350092526
:1020D0001025186F17C223F2246F0DC225F20001DC
:1020E000C5DD0201112BEAD7102BE4D70F2BCAD77D
:1020F0000E2B0C510827C2D70A2BD8B40B2B082B58
:10210000000126D70201000112000201086B000144
:1021100045DD020E0201086F096F340E0A6F1A0EB8
:102120000B6F0C6B010E0D6F0001B1DEEA6A2A0E17
:10213000E96EF2CF08F2F29E000E93DC0A0009006D
:10214000F550EE6E0009FBE1020108BFF28E060EAB
:10215000086F080E096F0B6B2A0E0A6F020E0C6FC8
:10216000010E0D6F0001F4DE410E0201086F020E38
:10217000096F750E0A6F1A0E0B6F0C6B010E0D6F47
:10218000000185DEEA6A2A0EE96EF2CF08F2F29EBD
:10219000000E72DC0A000900F550EE6E0009FBE14A
:1021A000020108BFF28E450E086F080E096F0B6B17
:1021B0002A0E0A6F020E0C6F010E0D6F0001C8DEB1
:1021C000020E0201086F240E096F340E0A6F3A0ED8
:1021D0000B6F0C6B010E0D6F000159DEEA6A2A0EBF
:1021E000E96EF2CF08F2F29E000E51DC0A000900FF
:1021F000F550EE6E0009FBE1020108BFF28E170EEA
:10220000086F280E096F0B6B2A0E0A6F020E0C6FF7
:10221000010E0D6F00019CDE410E0201086F240EBD
:10222000096F750E0A6F3A0E0B6F0C6B010E0D6F76
:1022300000012DDEEA6A2A0EE96EF2CF08F2F29E64
:10224000000E2EDC0A000900F550EE6E0009FBE1DD
:10225000020108BFF28E560E086F280E096F0B6B35
:102260002A0E0A6F020E0C6F010E0D6F000170DE58
:10227000D0EF13F00201095303E1085195080AE277
:102280000951010807E303E108512B0803E3440E59
:10229000016E36D0095100080FE2FF0A03E1085130
:1022A0005D080AE20951010807E303E10851F30858
:1022B00003E3550E016E24D0095101080FE2FF0A15
:1022C00003E1085157080AE20951030807E303E153
:1022D00008511F0803E3520E016E12D00951020883
:1022E00008E2FF0A03E10851E70803E24C0E016E21
:1022F00007D0095305E10851010802E3000E016E01
:1023000000011200800E02010A6F400E0B6F0C6B71
:102310000D6B0E6B106B0F6B0C6B0B510C5D3AE27F
:102320000D6B0A510D5D33E20E6B0E5107082AE367
:1023300010C203F00F51F2CF11F2F29E10C2F7FF5C
:1023400000016DEC03F0020111BFF28E116F006EFF
:102350000E51016E04E0D8900032012EFCD700A08F
:102360000FD00D510825116F0C5109250E25126F44
:1023700011C223F2246F010E256F000177DC0201E8
:102380000E2BD3D70F2BD8B4102B0D2BCAD7080E7A
:102390000C27C3D70001EFEF13F0800E02010A6F84
:1023A000400E0B6F0C6B0D6B0E6B106B0F6B0C6B91
:1023B0000B510C5D3AE20D6B0A510D5D33E20E6B71
:1023C0000E5107082AE310C203F00F51F2CF11F2A9
:1023D000F29E10C2F7FF000174EC05F0020111BF7C
:1023E000F28E116F006E0E51016E04E0D890003233
:1023F000012EFCD700A00FD00D510825116F0C51F4
:1024000009250E25126F11C223F2246F010E256FCC
:1024100000012CDC02010E2BD3D70F2BD8B4102BCC
:102420000D2BCAD7080E0C27C3D7000107EF14F0F5
:1024300009C203F0020108C2E9FF09C2EAFFEF5234
:102440000DE009C203F008C2E9FF09C2EAFFEF6A22
:10245000082BD8B4092B0001EBD7020100011200B0
:10246000EA6A2A0EE96EF2CF08F2F29E000E92ECB2
:102470000CF00A000900F550EE6E0009FBE10201C4
:1024800008BFF28E120E086F030E096F0B6B2A0E37
:102490000A6F010E0C6F0D6F00015ADD0201096B0E
:1024A0002A0E086F0001C4DFEA6A2A0EE96EF2CF35
:1024B00008F2F29E000EA1EC0CF00A000900F550A3
:1024C000EE6E0009FBE1020108BFF28E030E086FF9
:1024D0000F0E096F0B6B2A0E0A6F010E0C6F0D6F3A
:1024E000000136DD0201096B2A0E086F0001A0DF32
:1024F000EA6A2A0EE96EF2CF08F2F29E000EB0EC04
:102500000CF00A000900F550EE6E0009FBE1020133
:1025100008BFF28E030E086F190E096F0B6B2A0E9F
:102520000A6F010E0C6F0D6F000112DD0201096BC5
:102530002A0E086F00017CDFEA6A2A0EE96EF2CFEC
:1025400008F2F29E000EC1EC0CF00A000900F550F2
:10255000EE6E0009FBE1020108BFF28E030E086F68
:10256000230E096F0B6B2A0E0A6F010E0C6F0D6F95
:102570000001EEDC0201096B2A0E086F000158DF32
:10258000EA6A2A0EE96EF2CF08F2F29E000ED0EC53
:102590000CF00A000900F550EE6E0009FBE10201A3
:1025A00008BFF28E030E086F2D0E096F0B6B2A0EFB
:1025B0000A6F010E0C6F0D6F0001CADC0201096B7E
:1025C0002A0E086F000134DFEA6A2A0EE96EF2CFA4
:1025D00008F2F29E000EE2EC0CF00A000900F55041
:1025E000EE6E0009FBE1020108BFF28E030E086FD8
:1025F000370E096F0B6B2A0E0A6F010E0C6F0D6FF1
:102600000001A6DC0201096B2A0E086F000110DF31
:102610001BEF14F00201096B2A0E086F000108DF9E
:10262000EA6A2A0EE96EF2CF08F2F29E000E92ECF0
:102630000CF00A000900F550EE6E0009FBE1020102
:1026400008BFF28E120E086F030E096F0B6B2A0E75
:102650000A6F010E0C6F0D6F00017ADC0201096B2D
:102660002A0E086F0001E4DEEA6A2A0EE96EF2CF54
:1026700008F2F29E000EF1EC0CF00A000900F55091
:10268000EE6E0009FBE1020108BFF28E030E086F37
:10269000120E096F0B6B2A0E0A6F010E0C6F0D6F75
:1026A000000156DC0201096B2A0E086F0001C0DE32
:1026B000EA6A2A0EE96EF2CF08F2F29E000E01ECF1
:1026C0000DF00A000900F550EE6E0009FBE1020171
:1026D00008BFF28E030E086F1C0E096F0B6B2A0EDB
:1026E0000A6F010E0C6F0D6F000132DC0201096BE5
:1026F0002A0E086F00019CDEEA6A2A0EE96EF2CF0C
:1027000008F2F29E000E13EC0DF00A000900F550DD
:10271000EE6E0009FBE1020108BFF28E060E086FA3
:10272000280E096F0B6B2A0E0A6F010E0C6F0D6FCE
:1027300000010EDC0201096B2A0E086F000178DE31
:10274000EA6A2A0EE96EF2CF08F2F29E000E24EC3D
:102750000DF00A000900F550EE6E0009FBE10201E0
:1027600008BFF28E240E086F320E096F0B6B2A0E13
:102770000A6F010E0C6F0D6F0001A8EC0FF02FEF28
:1027800014F0F298F29CF29EF2BEFDD7F28AC00ECF
:10279000F212FA0E0201086F000198EC0DF0B5D4A8
:1027A000C284C2B4FED7C3CF55F0C4CF56F0C80E12
:1027B0000201086F000198EC0DF056C009F255C0F7
:1027C00008F258DD0150550810E10201086B0001C4
:1027D000CEEC0DF00201086B096B000193D53C0EA5
:1027E000D76EAF0ED66EF76BF66B56C009F255C0BA
:1027F00008F240DD0150440810E10201086B0001BD
:10280000CEEC0DF00201086B096B0001C6D53C0E41
:10281000D76EAF0ED66EF76BF66B56C009F255C089
:1028200008F228DD01504C080CE10201086B0001A0
:10283000CEEC0DF015D63C0ED76EAF0ED66EF76B04
:10284000F66B56C009F255C008F214DD015052086B
:102850000CE10201086B0001CEEC0DF0DBD63C0E62
:10286000D76EAF0ED66EF76BF66B938081A001D05A
:1028700097D7C80E0201086F000198EC0DF0FF0019
:10288000F29230EF00F0696C6B20656B72616E0044
:102890009292899292928982166AF2BE168EF29E66
:1028A000960E0201086F000198EC0DF016BEF28E34
:1028B00012000101E951070B006EE931016E01328E
:1028C00001321F0E01160150EB25E96E000EEC21BE
:1028D000EA6E016A012A002A01D00136002EFDD7D6
:1028E000EA5303E00150EF1203D0011E0150EF162E
:1028F000000112000101E86BE86BE551E85D49E277
:10290000E6C1E9F1010EEA6F0F0EEC6F890EEB6F75
:102910000001CFDFE6C1E9F10101EA6B0F0EEC6FB8
:10292000920EEB6F0001C5DFD8900101E431E96F31
:10293000166AF2BE168EF29EE8CF08F2000198ECFD
:102940000DF016BEF28EE6C1E9F10101EA6B0F0E41
:10295000EC6F890EEB6F0001ACDFE6C1E9F101011C
:10296000EA6B0F0EEC6F920EEB6F0001A2DFD890B6
:102970000101E431E96F166AF2BE168EF29EE8CFCD
:1029800008F2000198EC0DF016BEF28E0101E82B62
:10299000B4D70001120094908B8094928B929498FB
:1029A0008B98949A8B9A94968B96166AF2BE168E92
:1029B000F29E02012A6BC00E2B6F0001ACEC0DF0F1
:1029C00016BEF28E166AF2BE168EF29E010E02013D
:1029D0002A6FC00E2B6F0001ACEC0DF016BEF28E0C
:1029E000166AF2BE168EF29E02012A6B400E2B6F03
:1029F0000001ACEC0DF016BEF28E166AF2BE168E19
:102A0000F29E010E02012A6F400E2B6F0001ACEC0A
:102A10000DF016BEF28E166AF2BE168EF29E0201FE
:102A20002A6BB80E2B6F0001ACEC0DF016BEF28EC7
:102A3000166AF2BE168EF29E010E02012A6FB80EC1
:102A40002B6F0001ACEC0DF016BEF28E0101E42DEF
:102A50001DD0166AF2BE168EF29E02012A6B3F0E40
:102A60002B6F0001ACEC0DF016BEF28E166AF2BEB2
:102A7000168EF29E010E02012A6F3F0E2B6F00018F
:102A8000ACEC0DF016BEF28E1CD00101166AF2BE3F
:102A9000168EF29E02012A6B3E0E2B6F0001ACECEB
:102AA0000DF016BEF28E166AF2BE168EF29E010E62
:102AB00002012A6F3E0E2B6F0001ACEC0DF016BE2A
:102AC000F28E166AF2BE168EF29E0201086B0001AB
:102AD000CEEC0DF016BEF28ED2EF2BF0030E0101FC
:102AE000E45F0AE3010EEA6EE40EE96EEF5004E0E3
:102AF00001D000D0EF2EFDD70001E2EF2BF0800EC9
:102B00000101E66F400EE76FE86BE96BEA6BEC6B77
:102B1000EB6BE86BE751E85D43E2E96BE651E95D99
:102B20003CE2EA6BEA51070833E3ECC103F0EB51F6
:102B3000F2CFEDF1F29EECC1F7FF000161EC01F084
:102B40000101EDBFF28EED6F006EEA51016E04E0FF
:102B5000D8900032012EFCD700A018D0E951E4250E
:102B6000ED6FE851E525EA25EE6F166AF2BE168E86
:102B7000F29EEDC123F2E8CF24F2010E0201256F8F
:102B8000000136EC0EF016BEF28E0101EA2BCAD718
:102B9000EB2BD8B4EC2BE92BC1D7080EE827BAD71A
:102BA0000001ACEF16F0166AF2BE168EF29E02011C
:102BB000086B0001CEEC0DF016BEF28E166AF2BE66
:102BC000168EF29E010E0201086F096F7F0E0A6FCA
:102BD0003F0E0B6F010E0C6F0D6F000147EC0FF0F5
:102BE00016BEF28EEA6A2A0EE96EF2CFE4F1F29E88
:102BF000000E4CEC0CF00A000900F550EE6E0009D6
:102C0000FBE10101E4BFF28E166AF2BE168EF29E5F
:102C10000C0E0201086F0A0E096F0B6B2A0E0A6F69
:102C2000010E0C6F0D6B0001A8EC0FF016BEF28EBA
:102C3000020E0101E46F166AF2BE168EF29E960E27
:102C40000201086F000198EC0DF016BEF28E010132
:102C5000E42FF1D7EA6A2A0EE96EF2CFE4F1F29E90
:102C6000000E000163EC0CF00A000900F550EE6E56
:102C70000009FBE10101E4BFF28E166AF2BE168E76
:102C8000F29E060E0201086F1C0E096F0B6B2A0ED6
:102C90000A6F010E0C6F0D6B0001A8EC0FF016BE51
:102CA000F28E020E0101E46F166AF2BE168EF29EDB
:102CB000960E0201086F000198EC0DF016BEF28E20
:102CC0000101E42FF1D7EA6A2A0EE96EF2CFE4F1AE
:102CD000F29E000E00017AEC0CF00A000900F5509B
:102CE000EE6E0009FBE10101E4BFF28E166AF2BE4E
:102CF000168EF29E060E0201086F280E096F0B6BEE
:102D00002A0E0A6F010E0C6F0D6B0001A8EC0FF07C
:102D100016BEF28E040E0101E46F166AF2BE168E24
:102D2000F29EFA0E0201086F000198EC0DF016BE3B
:102D3000F28E0101E42FF1D7166AF2BE168EF29ED2
:102D40000201086B0001CEEC0DF016BEF28E0101FF
:102D5000E46BE56B0001D3D6E4EF2BF00900F552EC
:102D60000DE0F6CFE4F1F7CFE5F1F5509EA8FED7E0
:102D7000AD6EE4C1F6FFE5C1F7FFF0D7EAEF2BF047
:102D8000938681B6FED7080E006E0101E46B008EBB
:102D90000ED0009E0CD0D89081B6D880E433008C41
:102DA00006D0009C002EF7D7E4C101F00CD0A70E8E
:102DB00000BE2D0E016E012EFED7000000BEE9D729
:102DC00000BCEFD7E8D700011200EDC1EFF1ECC174
:102DD000EEF1EFC103F00101EEC1E9FFEFC1EAFF3F
:102DE000EF5206E0EE2BD8B4EF2B0001F2D7010131
:102DF000EC51EE5D006EED51EF59036E00C001F035
:102E000000011200E5C1EDF1E4C1ECF1DEDF015299
:102E100003E1000E016E22D00101E86BE8510B08BE
:102E20001AE3036AE851E425E96EE5510320EA6EEE
:102E3000EFCFE9F1036AE851E625E96EE751032097
:102E4000EA6EEF50E95D05E0000E016E000106D06C
:102E50000101E82BE3D7010E016E00011200800E84
:102E60000101E66F400EE76FE86BE96BEA6BEC6B14
:102E7000EB6BE86BE751E85D43E2E96BE651E95D36
:102E80003CE2EA6BEA51070833E3ECC103F0EB5193
:102E9000F2CFEDF1F29EECC1F7FF000187EC09F0F3
:102EA0000101EDBFF28EED6F006EEA51016E04E09C
:102EB000D8900032012EFCD700A018D0E951E425AB
:102EC000ED6FE851E525EA25EE6F166AF2BE168E23
:102ED000F29EEDC123F2E8CF24F2010E0201256F2C
:102EE000000136EC0EF016BEF28E0101EA2BCAD7B5
:102EF000EB2BD8B4EC2BE92BC1D7080EE827BAD7B7
:102F000000011200939A8A9A84940101E76BE651BA
:102F1000E75D1BE2010EE65DD880E755E86FE5C18D
:102F200003F0E4C102F0E851006E05E0D8900332EE
:102F30000232002EFBD7025002A002D0848201D0C0
:102F4000849284808490E72BE2D78484000112006D
:102F50000101EA6BEB6BEA6BE6C1EDF1E5C1ECF167
:102F6000000133DF01500101EA5D49E2036AEA51E1
:102F7000E525E96EE6510320EA6EEF502C0801E1E9
:102F8000EB2BE951EB5DD8B43AD0010EE95DEB5D76
:102F900034E1E92D19D0E8C103F0E751E72BD8B4AB
:102FA000E82BEC6F03C0EDF1036AEA51E525E96E09
:102FB000E6510320EA6EEFCFEEF1EDC1EAFFECC17E
:102FC000E9FFEEC1EFFF19D0E8C103F0E751E72BAD
:102FD000D8B4E82BEC6F03C0EDF1010EEA25036ACB
:102FE000E525E96EE6510320EA6EEFCFEEF1EDC183
:102FF000EAFFECC1E9FFEEC1EFFFEA2BADD7E8C174
:1030000003F0E751D8B4E807E707E96E03C0EAFF29
:10301000EF6A000112000101E76BE76BE5C1EDF11A
:10302000E4C1ECF10001D1DE01500101E75D14E2E1
:10303000036AE751E425E96EE5510320EA6EE651A3
:10304000EF5C08E1036AE751E425E96EE5510320EE
:10305000EA6EEF6AE72BE2D700011200EA6A2A0E55
:10306000E96EF2CFE4F1F29E000E59EC0DF00A0089
:103070000900F550EE6E0009FBE10101E4BFF28E9C
:10308000166AF2BE168EF29E0F0E0201086F040E33
:10309000096F0B6B2A0E0A6F020E0C6F010E0D6F7B
:1030A0000001A8EC0FF016BEF28E166AF2BE168E64
:1030B000F29E0201096B2A0E086F000118EC12F053
:1030C00016BEF28E0101E66BF80EE56FE86B2A0E74
:1030D000E76F010EE96F00013BDF0101E56B2A0E8E
:1030E000E46F2C0EE66F000196DF166AF2BE168EB4
:1030F000F29E080E0201086F150E096F0B6B2A0E67
:103100000A6F010E0C6F0D6F0001A8EC0FF016BED8
:10311000F28E166AF2BE168EF29E0201096B2A0E1C
:10312000086F000118EC12F016BEF28E0101E66B7A
:10313000F80EE56FE86B2A0EE76F020EE96F0001EB
:1031400007DF0101E56B2A0EE46F2C0EE66F00012C
:1031500062DF166AF2BE168EF29E080E0201086F3A
:103160001D0E096F0B6B2A0E0A6F010E0C6F0D6F8F
:103170000001A8EC0FF016BEF28E166AF2BE168E93
:10318000F29E0201096B2A0E086F000118EC12F082
:1031900016BEF28E0101E66BF80EE56FE86B2A0EA3
:1031A000E76F030EE96F0001D3DE0101E56B2A0E24
:1031B000E46F2C0EE66F00012EDF166AF2BE168E4B
:1031C000F29E080E0201086F250E096F0B6B2A0E86
:1031D0000A6F010E0C6F0D6F0001A8EC0FF016BE08
:1031E000F28E166AF2BE168EF29E0201096B2A0E4C
:1031F000086F000118EC12F016BEF28E0101E66BAA
:10320000F80EE56FE86B2A0EE76F040EE96F000118
:103210009FDE0101E56B2A0EE46F2C0EE66F0001C4
:10322000FADE166AF2BE168EF29E080E0201086FD2
:103230002D0E096F0B6B2A0E0A6F010E0C6F0D6FAE
:103240000001A8EC0FF016BEF28E166AF2BE168EC2
:10325000F29E0201096B2A0E086F000118EC12F0B1
:1032600016BEF28E0101E66BF80EE56FE86B2A0ED2
:10327000E76F050EE96F00016BDE0101E56B2A0EB9
:10328000E46F2C0EE66F0001C6DE166AF2BE168EE3
:10329000F29E080E0201086F350E096F0B6B2A0EA5
:1032A0000A6F010E0C6F0D6F0001A8EC0FF016BE37
:1032B000F28E5784D6EF1BF0EA6A2A0EE96EF2CF3F
:1032C000E4F1F29E000E59EC0DF00A000900F550F1
:1032D000EE6E0009FBE10101E4BFF28E166AF2BE58
:1032E000168EF29E0F0E0201086F040E096F0B6B13
:1032F0002A0E0A6F020E0C6F010E0D6F0001A8EC72
:103300000FF016BEF28E166AF2BE168EF29E020103
:10331000096B2A0E086F000118EC12F016BEF28E2F
:103320000101E66BF80EE56FE86B2A0EE76F060EFB
:10333000E96F00010DDE0101E56B2A0EE46F2C0E32
:10334000E66F000168DE166AF2BE168EF29E080E67
:103350000201086F150E096F0B6B2A0E0A6F010E22
:103360000C6F0D6F0001A8EC0FF016BEF28E166AFE
:10337000F2BE168EF29E0201096B2A0E086F000142
:1033800018EC12F016BEF28E0101E66BF80EE56F36
:10339000E86B2A0EE76F070EE96F0001D9DD010126
:1033A000E56B2A0EE46F2C0EE66F000134DE166A20
:1033B000F2BE168EF29E080E0201086F1D0E096FF6
:1033C0000B6B2A0E0A6F010E0C6F0D6F0001A8EC3B
:1033D0000FF016BEF28E166AF2BE168EF29E020133
:1033E000096B2A0E086F000118EC12F016BEF28E5F
:1033F0000101E66BF80EE56FE86B2A0EE76F080E29
:10340000E96F0001A5DD0101E56B2A0EE46F2C0ECA
:10341000E66F000100DE166AF2BE168EF29E080EFE
:103420000201086F250E096F0B6B2A0E0A6F010E41
:103430000C6F0D6F0001A8EC0FF016BEF28E166A2D
:10344000F2BE168EF29E0201096B2A0E086F000171
:1034500018EC12F016BEF28E0101E66BF80EE56F65
:10346000E86B2A0EE76F090EE96F000171DD0101BB
:10347000E56B2A0EE46F2C0EE66F0001CCDD166AB8
:10348000F2BE168EF29E080E0201086F2D0E096F15
:103490000B6B2A0E0A6F010E0C6F0D6F0001A8EC6A
:1034A0000FF016BEF28E166AF2BE168EF29E020162
:1034B000096B2A0E086F000118EC12F016BEF28E8E
:1034C0000101E66BF80EE56FE86B2A0EE76F0A0E56
:1034D000E96F00013DDD0101E56B2A0EE46F2C0E62
:1034E000E66F000198DD166AF2BE168EF29E080E97
:1034F0000201086F350E096F0B6B2A0E0A6F010E61
:103500000C6F0D6F0001A8EC0FF016BEF28E5786FF
:103510007FEF1CF0EA6A2A0EE96EF2CFE4F1F29E28
:10352000000E59EC0DF00A000900F550EE6E00098E
:10353000FBE10101E4BFF28E166AF2BE168EF29E26
:103540000F0E0201086F040E096F0B6B2A0E0A6F33
:10355000020E0C6F010E0D6F0001A8EC0FF016BEED
:10356000F28E166AF2BE168EF29E0201096B2A0EC8
:10357000086F000118EC12F016BEF28E0101E66B26
:10358000F80EE56FE86B2A0EE76F0B0EE96F00018E
:10359000DFDC0101E56B2A0EE46F2C0EE66F000103
:1035A0003ADD166AF2BE168EF29E080E0201086F10
:1035B000150E096F0B6B2A0E0A6F010E0C6F0D6F43
:1035C0000001A8EC0FF016BEF28E166AF2BE168E3F
:1035D000F29E0201096B2A0E086F000118EC12F02E
:1035E00016BEF28E0101E66BF80EE56FE86B2A0E4F
:1035F000E76F0C0EE96F0001ABDC0101E56B2A0EF1
:10360000E46F2C0EE66F000106DD166AF2BE168E20
:10361000F29E080E0201086F1D0E096F0B6B2A0E39
:103620000A6F010E0C6F0D6F0001A8EC0FF016BEB3
:10363000F28E578866EF1DF0800E0101E66F400E96
:10364000E76FE86BE96BEA6BEC6BEB6BE86BE751F0
:10365000E85D43E2E96BE651E95D3CE2EA6BEA5181
:10366000070833E3ECC103F0EB51F2CFEDF1F29E2A
:10367000ECC1F7FF00017BEC07F00101EDBFF28E1A
:10368000ED6F006EEA51016E04E0D8900032012E19
:10369000FCD700A018D0E951E425ED6FE851E525ED
:1036A000EA25EE6F166AF2BE168EF29EEDC123F287
:1036B000E8CF24F2010E0201256F000136EC0EF076
:1036C00016BEF28E0101EA2BCAD7EB2BD8B4EC2B35
:1036D000E92BC1D7080EE827BAD700016EEF24F016
:1036E000F298F29CF29EF2BEFDD7F28AC00EF21260
:1036F000036A010E026E0101E051006E05E0D890F0
:1037000002360336002EFBD70250E2130350E313B8
:10371000E3C1E5F1E2C1E4F1100EE66F000182ECD5
:1037200017F0020E0101E46F166AF2BE168EF29EC9
:10373000FA0E0201086F000198EC0DF016BEF28E31
:103740000101E42FF1D7E36BE26BE56BE46B100E44
:10375000E66F000182EC17F057B4A7D00101DE53E9
:10376000D8B402D00001A1D0166AF2BE168EF29E25
:103770000201086B0001CEEC0DF016BEF28E5798D8
:103780005796166AF2BE168EF29E010E0201086F5F
:10379000096F7F0E0A6F3F0E0B6F0C6B010E0D6FE2
:1037A000000147EC0FF016BEF28E58D40101E15132
:1037B00044083EE1E66BF80EE56FE86B2A0EE76F12
:1037C000050EE96F0001A8EC17F00101E56B2A0E68
:1037D000E46F2C0EE66F00011EDC166AF2BE168E38
:1037E000F29E070E0201086F350E096F780E0A6F00
:1037F0003C0E0B6F010E0C6F0D6F000147EC0FF0CC
:1038000016BEF28E166AF2BE168EF29E080E0201E7
:10381000086F350E096F0B6B2A0E0A6F010E0C6FC5
:103820000D6B0001A8EC0FF016BEF28E3ED0010128
:10383000E66BF80EE56FE86B2A0EE76F010EE96F95
:103840000001A8EC17F00101E56B2A0EE46F2C0EC5
:10385000E66F00010BEC18F0166AF2BE168EF29EAF
:10386000070E0201086F150E096F780E0A6F1C0E05
:103870000B6F010E0C6F0D6F000147EC0FF016BEC1
:10388000F28E166AF2BE168EF29E080E0201086FC4
:10389000150E096F0B6B2A0E0A6F010E0C6F0D6B64
:1038A0000001A8EC0FF016BEF28E57B6E4D001016D
:1038B000DE2D01D002D00001DED0166AF2BE168ED7
:1038C000F29E0201086B0001CEEC0DF016BEF28EE6
:1038D00057945798166AF2BE168EF29E010E020198
:1038E000086F096F7F0E0A6F3F0E0B6F0C6B010E96
:1038F0000D6F000147EC0FF016BEF28EDDD4010112
:10390000E151440817E1166AF2BE168EF29E070EC8
:103910000201086F350E096F780E0A6F3C0E0B6FAF
:10392000010E0C6F0D6F000147EC0FF016BEF28E0A
:1039300016D00101166AF2BE168EF29E070E020123
:10394000086F150E096F780E0A6F1C0E0B6F010EB3
:103950000C6F0D6F000147EC0FF016BEF28E0101E7
:10396000E66BF80EE56FE86B2A0EE76F060EE96F5F
:103970000001A8EC17F00101E15144083FE1E66BBA
:10398000F80EE56FE86B2A0EE76F0A0EE96F00018B
:10399000A8EC17F00101E56B2A0EE46F2C0EE66F20
:1039A00000010BEC18F0166AF2BE168EF29E070E9E
:1039B0000201086F350E096F780E0A6F3C0E0B6F0F
:1039C000010E0C6F0D6F000147EC0FF016BEF28E6A
:1039D000166AF2BE168EF29E080E0201086F350EB0
:1039E000096F0B6B2A0E0A6F010E0C6F0D6B000135
:1039F000A8EC0FF016BEF28E3ED00101E66BF80E79
:103A0000E56FE86B2A0EE76F060EE96F0001A8EC80
:103A100017F00101E56B2A0EE46F2C0EE66F000132
:103A20000BEC18F0166AF2BE168EF29E070E02011B
:103A3000086F150E096F780E0A6F1C0E0B6F010EC2
:103A40000C6F0D6F000147EC0FF016BEF28E166A78
:103A5000F2BE168EF29E080E0201086F150E096F57
:103A60000B6B2A0E0A6F010E0C6F0D6B0001A8EC98
:103A70000FF016BEF28E57B8BDD00101DE5102081C
:103A8000D8B402D00001B6D0166AF2BE168EF29EED
:103A90000201086B0001CEEC0DF016BEF28E5796B7
:103AA0005794166AF2BE168EF29E010E0201086F3E
:103AB000096F7F0E0A6F3F0E0B6F0C6B010E0D6FBF
:103AC000000147EC0FF016BEF28E24D50101E15142
:103AD000440817E1166AF2BE168EF29E070E020126
:103AE000086F350E096F780E0A6F3C0E0B6F010ED2
:103AF0000C6F0D6F000147EC0FF016BEF28E16D062
:103B00000101166AF2BE168EF29E070E0201086FC0
:103B1000150E096F780E0A6F1C0E0B6F010E0C6FDD
:103B20000D6F000147EC0FF016BEF28E0101E66B3F
:103B3000F80EE56FE86B2A0EE76F0B0EE96F0001D8
:103B4000A8EC17F00101E15144082BE1166AF2BE1E
:103B5000168EF29E070E0201086F350E096F780E61
:103B60000A6F3C0E0B6F010E0C6F0D6F000147ECDE
:103B70000FF016BEF28E166AF2BE168EF29E080E78
:103B80000201086F150E096F0B6B2A0E0A6F010EEA
:103B90000C6F0D6F0001A8EC0FF016BEF28E2AD04C
:103BA0000101166AF2BE168EF29E070E0201086F20
:103BB000150E096F780E0A6F1C0E0B6F010E0C6F3D
:103BC0000D6F000147EC0FF016BEF28E166AF2BEC2
:103BD000168EF29E080E0201086F150E096F0B6B10
:103BE0002A0E0A6F010E0C6F0D6B0001A8EC0FF08E
:103BF00016BEF28EC284C2B4FED7C3CF55F0C4CF76
:103C000056F0166AF2BE168EF29E56C009F255C0E4
:103C100008F23AEC11F016BEF28E01C0E1F15652F4
:103C200005E155503208D8B04DEF24F0166AF2BEC7
:103C3000168EF29EC80E0201086F000198EC0DF07E
:103C400016BEF28E0101E15155083EE1DF2BE02B5B
:103C5000DFBF05D0DF51040802E2040EDF6FE0BFD2
:103C600005D0E0510B0802E20B0EE06FE0BF03D07D
:103C7000E051040803E3DE6BE0C1DFF1E0BF0DD0EB
:103C8000E05104080AE2E0BF03D0E051090805E36F
:103C9000010EDE6F050EE05DDF6FE0BF0DD0E0517D
:103CA00009080AE2E0BF03D0E0510B0805E3020E69
:103CB000DE6F0A0EE05DDF6F3C0ED76EAF0ED66E84
:103CC0000001F76BF66B0101E151440836E1DF07B3
:103CD000E007DFAF01D0DF6BE0AF01D0E06BE0BF0A
:103CE00003D0E051040803E3DE6BE0C1DFF1E0BF85
:103CF0000DD0E05104080AE2E0BF03D0E05109080A
:103D000005E3010EDE6F050EE05DDF6FE0BF0DD055
:103D1000E05109080AE2E0BF03D0E0510B0805E3D7
:103D2000020EDE6F0A0EE05DDF6F3C0ED76EAF0E47
:103D3000D66E0001F76BF66B0101DF51FB0FD8B0B7
:103D40004EEF24F0050F00011BEF25F00101E151BA
:103D500055086CE1166AF2BE168EF29E070E02013D
:103D6000086F150E096F780E0A6F1C0E0B6F010E8F
:103D70000C6F0D6F000147EC0FF016BEF28E166A45
:103D8000F2BE168EF29E0201096B2A0E086F000128
:103D900018EC12F016BEF28E0101DE530CE1E66B58
:103DA000F80EE56FE86B2A0EE76F010EE96F000170
:103DB000A8EC17F00101DE2D0CD0E66BF80EE56FD4
:103DC000E86B2A0EE76F060EE96F0001A8EC17F00A
:103DD0000101DE5102080CE1E66BF80EE56FE86BBD
:103DE0002A0EE76F0B0EE96F0001A8EC17F0010136
:103DF000E56B2A0EE46F2C0EE66F00010BEC18F059
:103E0000166AF2BE168EF29E080E0201086F150E9B
:103E1000096F0B6B2A0E0A6F010E0C6F0D6B000100
:103E2000A8EC0FF016BEF28ED9D00101E151440882
:103E3000D8A4D5D0166AF2BE168EF29E070E0201E5
:103E4000086F1D0E096F780E0A6F240E0B6F010E9E
:103E50000C6F0D6B000147EC0FF016BEF28E166A68
:103E6000F2BE168EF29E0201096B2A0E086F000147
:103E700018EC12F016BEF28E0101DE530CE1E66B77
:103E8000F80EE56FE86B2A0EE76F020EE96F00018E
:103E9000A8EC17F00101DE2D0CD0E66BF80EE56FF3
:103EA000E86B2A0EE76F070EE96F0001A8EC17F028
:103EB0000101DE5102080CE1E66BF80EE56FE86BDC
:103EC0002A0EE76F0C0EE96F0001A8EC17F0010154
:103ED000E56B2A0EE46F2C0EE66F00010BEC18F078
:103EE000166AF2BE168EF29E080E0201086F1D0EB3
:103EF000096F0B6B2A0E0A6F010E0C6F0D6F00011C
:103F0000A8EC0FF016BEF28E166AF2BE168EF29E66
:103F1000070E0201086F150E096F780E0A6F1C0E4E
:103F20000B6F010E0C6F0D6F000147EC0FF016BE0A
:103F3000F28E166AF2BE168EF29E0201096B2A0EEE
:103F4000086F000118EC12F016BEF28E0101DE536C
:103F50000CE1E66BF80EE56FE86B2A0EE76F010ED9
:103F6000E96F0001A8EC17F00101DE2D0CD0E66B23
:103F7000F80EE56FE86B2A0EE76F060EE96F000199
:103F8000A8EC17F00101DE5102080CE1E66BF80E17
:103F9000E56FE86B2A0EE76F0B0EE96F0001A8ECE6
:103FA00017F00101E56B2A0EE46F2C0EE66F00019D
:103FB0000BEC18F0166AF2BE168EF29E080E020185
:103FC000086F150E096F0B6B2A0E0A6F010E0C6F2E
:103FD0000D6B0001A8EC0FF016BEF28E01014EEF42
:103FE00024F00101E1515508D8A4A5D0166AF2BE0B
:103FF000168EF29E070E0201086F150E096F780EDD
:104000000A6F1C0E0B6F010E0C6F0D6B000147EC5D
:104010000FF016BEF28E0101DE5102080CE1E66BD4
:10402000F80EE56FE86B2A0EE76F0B0EE96F0001E3
:10403000A8EC17F00101166AF2BE168EF29E080E69
:104040000201086F150E096F0B6B2A0E0A6F010E25
:104050000C6F0D6F0001A8EC0FF016BEF28E166A01
:10406000F2BE168EF29E070E0201086F1D0E096F3A
:10407000780E0A6F240E0B6F010E0C6F0D6F00018E
:1040800047EC0FF016BEF28E166AF2BE168EF29E46
:104090000201096B2A0E086F000118EC12F016BE1F
:1040A000F28E0101DE530CE1E66BF80EE56FE86B72
:1040B0002A0EE76F020EE96F0001A8EC17F001016C
:1040C000DE2D0CD0E66BF80EE56FE86B2A0EE76F7D
:1040D000070EE96F0001A8EC17F00101DE5102089C
:1040E0000CE1E66BF80EE56FE86B2A0EE76F0C0E3D
:1040F000E96F0001A8EC17F00101E56B2A0EE46FEF
:104100002C0EE66F00010BEC18F0166AF2BE168E4C
:10411000F29E080E0201086F1D0E096F0B6B2A0E2E
:104120000A6F010E0C6F0D6B0001A8EC0FF016BEAC
:10413000F28E98D00101E1514408D8A494D0166AB7
:10414000F2BE168EF29E070E0201086F250E096F51
:10415000780E0A6F2C0E0B6F010E0C6F0D6B0001A9
:1041600047EC0FF016BEF28E166AF2BE168EF29E65
:10417000080E0201086F250E096F0B6B2A0E0A6FDD
:10418000010E0C6F0D6F0001A8EC0FF016BEF28E41
:10419000166AF2BE168EF29E070E0201086F1D0E01
:1041A000096F780E0A6F240E0B6F010E0C6F0D6FE6
:1041B000000147EC0FF016BEF28E166AF2BE168EA4
:1041C000F29E0201096B2A0E086F000118EC12F032
:1041D00016BEF28E0101DE530CE1E66BF80EE56FC0
:1041E000E86B2A0EE76F020EE96F0001A8EC17F0EA
:1041F0000101DE2D0CD0E66BF80EE56FE86B2A0EA0
:10420000E76F070EE96F0001A8EC17F00101DE511E
:1042100002080CE1E66BF80EE56FE86B2A0EE76F1B
:104220000C0EE96F0001A8EC17F00101E56B2A0EF6
:10423000E46F2C0EE66F00010BEC18F0166AF2BE6C
:10424000168EF29E080E0201086F1D0E096F0B6B91
:104250002A0E0A6F010E0C6F0D6B0001A8EC0FF017
:1042600016BEF28E01011AD30101E1515508D8A4FE
:1042700095D0166AF2BE168EF29E070E0201086FE6
:104280001D0E096F780E0A6F240E0B6F010E0C6F56
:104290000D6B000147EC0FF016BEF28E166AF2BEEF
:1042A000168EF29E080E0201086F1D0E096F0B6B31
:1042B0002A0E0A6F010E0C6F0D6F0001A8EC0FF0B3
:1042C00016BEF28E166AF2BE168EF29E070E02011E
:1042D000086F250E096F780E0A6F2C0E0B6F010EFA
:1042E0000C6F0D6F000147EC0FF016BEF28E166AD0
:1042F000F2BE168EF29E0201096B2A0E086F0001B3
:1043000018EC12F016BEF28E0101DE530CE1E66BE2
:10431000F80EE56FE86B2A0EE76F030EE96F0001F8
:10432000A8EC17F00101DE2D0CD0E66BF80EE56F5E
:10433000E86B2A0EE76F080EE96F0001A8EC17F092
:104340000101DE5102080CE1E66BF80EE56FE86B47
:104350002A0EE76F0C0EE96F0001A8EC17F00101BF
:10436000E56B2A0EE46F2C0EE66F00010BEC18F0E3
:10437000166AF2BE168EF29E080E0201086F250E16
:10438000096F0B6B2A0E0A6F010E0C6F0D6B00018B
:10439000A8EC0FF016BEF28E98D00101E15144084E
:1043A000D8A494D0166AF2BE168EF29E070E0201B1
:1043B000086F2D0E096F780E0A6F340E0B6F010E09
:1043C0000C6F0D6B000147EC0FF016BEF28E166AF3
:1043D000F2BE168EF29E080E0201086F2D0E096FB6
:1043E0000B6B2A0E0A6F010E0C6F0D6F0001A8EC0B
:1043F0000FF016BEF28E166AF2BE168EF29E070EF1
:104400000201086F250E096F780E0A6F2C0E0B6FD4
:10441000010E0C6F0D6F000147EC0FF016BEF28E0F
:10442000166AF2BE168EF29E0201096B2A0E086F02
:10443000000118EC12F016BEF28E0101DE530CE101
:10444000E66BF80EE56FE86B2A0EE76F030EE96F77
:104450000001A8EC17F00101DE2D0CD0E66BF80E80
:10446000E56FE86B2A0EE76F080EE96F0001A8EC14
:1044700017F00101DE5102080CE1E66BF80EE56F62
:10448000E86B2A0EE76F0C0EE96F0001A8EC17F03D
:104490000101E56B2A0EE46F2C0EE66F00010BECB8
:1044A00018F0166AF2BE168EF29E080E0201086F10
:1044B000250E096F0B6B2A0E0A6F010E0C6F0D6B28
:1044C0000001A8EC0FF016BEF28E0101E7D1010148
:1044D000E1515508D8A495D0166AF2BE168EF29E08
:1044E000070E0201086F250E096F780E0A6F2C0E59
:1044F0000B6F010E0C6F0D6B000147EC0FF016BE39
:10450000F28E166AF2BE168EF29E080E0201086F37
:10451000250E096F0B6B2A0E0A6F010E0C6F0D6FC3
:104520000001A8EC0FF016BEF28E166AF2BE168ECF
:10453000F29E070E0201086F2D0E096F780E0A6FAA
:10454000340E0B6F010E0C6F0D6F000147EC0FF076
:1045500016BEF28E166AF2BE168EF29E0201096B2C
:104560002A0E086F000118EC12F016BEF28E01013F
:10457000DE530CE1E66BF80EE56FE86B2A0EE76F91
:10458000040EE96F0001A8EC17F00101DE2D0CD03C
:10459000E66BF80EE56FE86B2A0EE76F090EE96F20
:1045A0000001A8EC17F00101DE5102080CE1E66BF6
:1045B000F80EE56FE86B2A0EE76F0C0EE96F00014D
:1045C000A8EC17F00101E56B2A0EE46F2C0EE66FE4
:1045D00000010BEC18F0166AF2BE168EF29E080E61
:1045E0000201086F2D0E096F0B6B2A0E0A6F010E68
:1045F0000C6F0D6B0001A8EC0FF016BEF28EB1D05F
:104600000101E1514408D8A4ADD0166AF2BE168E5D
:10461000F29E070E0201086F350E096F780E0A6FC1
:104620003C0E0B6F010E0C6F0D6B000147EC0FF091
:1046300016BEF28E166AF2BE168EF29E0201096B4B
:104640002A0E086F000118EC12F016BEF28E01015E
:10465000E66BF80EE56FE86B2A0EE76F050EE96F63
:104660000001A8EC17F0166AF2BE168EF29E080E34
:104670000201086F360E096F0B6B2A0E0A6F010ECE
:104680000C6F0D6F0001A8EC0FF016BEF28E166ACB
:10469000F2BE168EF29E070E0201086F2D0E096FF4
:1046A000780E0A6F340E0B6F010E0C6F0D6F000148
:1046B00047EC0FF016BEF28E166AF2BE168EF29E10
:1046C0000201096B2A0E086F000118EC12F016BEE9
:1046D000F28E0101DE530CE1E66BF80EE56FE86B3C
:1046E0002A0EE76F040EE96F0001A8EC17F0010134
:1046F000DE2D0CD0E66BF80EE56FE86B2A0EE76F47
:10470000090EE96F0001A8EC17F00101DE51020863
:104710000CE1E66BF80EE56FE86B2A0EE76F0C0E06
:10472000E96F0001A8EC17F00101E56B2A0EE46FB8
:104730002C0EE66F00010BEC18F0166AF2BE168E16
:10474000F29E080E0201086F2D0E096F0B6B2A0EE8
:104750000A6F010E0C6F0D6B0001A8EC0FF016BE76
:10476000F28E01019BD00101E1515508D8A494D0EB
:10477000166AF2BE168EF29E070E0201086F2D0E0B
:10478000096F780E0A6F340E0B6F010E0C6F0D6BF4
:10479000000147EC0FF016BEF28E166AF2BE168EBE
:1047A000F29E080E0201086F2D0E096F0B6B2A0E88
:1047B0000A6F010E0C6F0D6F0001A8EC0FF016BE12
:1047C000F28E166AF2BE168EF29E070E0201086F76
:1047D000350E096F780E0A6F3C0E0B6F010E0C6FD1
:1047E0000D6F000147EC0FF016BEF28E166AF2BE96
:1047F000168EF29E0201096B2A0E086F000118EC5A
:1048000012F016BEF28E0101DE530CE1E66BF80EDB
:10481000E56FE86B2A0EE76F050EE96F0001A8EC63
:1048200017F00101DE2D0CD0E66BF80EE56FE86B9A
:104830002A0EE76F0A0EE96F0001A8EC17F00101DC
:10484000DE5102080CE1E66BF80EE56FE86B2A0E0C
:10485000E76F0C0EE96F0001A8EC17F00101E56BA2
:104860002A0EE46F2C0EE66F00010BEC18F0166AAE
:10487000F2BE168EF29E080E0201086F360E096F08
:104880000B6B2A0E0A6F010E0C6F0D6B0001A8EC6A
:104890000FF016BEF28E010101D00101938081B0AC
:1048A000C1D0166AF2BE168EF29EFA0E0201086F91
:1048B000000198EC0DF016BEF28E166AF2BE168E4E
:1048C000F29E0201086B0001CEEC0DF016BEF28ED6
:1048D0000101E46BE56B00011CEF1BF0010E01010F
:1048E000E025E46FE66BF80EE56FE86B2A0EE76FE4
:1048F000E4C1E9F10001A8EC17F00101E56B2A0E13
:10490000E46F2C0EE66F00010BEC18F0166AF2BE95
:10491000168EF29E030E0201086F010E096F0B6BDB
:104920002A0E0A6F010E0C6F0D6F0001A8EC0FF03C
:1049300016BEF28EEA6A2A0EE96EF2CFE4F1F29E1A
:10494000000E6BEC0DF00A000900F550EE6E000948
:10495000FBE10101E4BFF28E166AF2BE168EF29EF2
:104960001E0E0201086F0A0E096F0B6B2A0E0A6FEA
:10497000010E0C6F0D6F0001A8EC0FF016BEF28E49
:10498000036A010E026E0101E051006E05E0D8904D
:1049900002360336002EFBD70250E2130350E31316
:1049A000E3C1E5F1E2C1E4F1100EE66F000182EC33
:1049B00017F0060E0101E46F166AF2BE168EF29E23
:1049C000FA0E0201086F000198EC0DF016BEF28E8F
:1049D0000101E42FF1D7E56BE46B100EE66F0001E7
:1049E00082EC17F0166AF2BE168EF29E0201086B78
:1049F0000001CEEC0DF016BEF28E020E0101E46F46
:104A0000166AF2BE168EF29E960E0201086F000123
:104A100098EC0DF016BEF28E0101E42FF1D7F29A58
:104A2000FF0004D00001ACEF1BF001015790000122
:104A300048EC14F01200F2CF0DF0F29EE824F76A71
:104A4000F7365B0FF66E4A0EF7220A00F550FA6E43
:104A50000800F5500DBEF28EF96E4C3DE23F684203
:104A6000CE446647166AF2BE168EF29E0201096BAC
:104A7000480E086F000118EC12F016BEF28EC0EC62
:104A800016F001C01AF01A500208F9E1EA6A480E5D
:104A9000E96EE906C0EC16F001C0ECFF0D0EEF5C0C
:104AA000F9E1EC6A0101ED6B480EEC6F0001E5ECF9
:104AB00016F001500D0802E1578057D0166AF2BE79
:104AC000168EF29E0201086B0001CEEC0DF016BEB0
:104AD000F28EEA6A2A0EE96EF2CFE4F1F29E000E3F
:104AE00093EC0BF00A000900F550EE6E0009FBE1B3
:104AF0000101E4BFF28E166AF2BE168EF29E1C0E03
:104B00000201086F180E096F0B6B2A0E0A6F010E57
:104B10000C6F0D6F0001A8EC0FF016BEF28EEA6A62
:104B20002A0EE96EF2CFE4F1F29E000EA7EC0BF034
:104B30000A000900F550EE6E0009FBE10101E4BF37
:104B4000F28E166AF2BE168EF29E1B0E0201086FDE
:104B5000200E096F0B6B2A0E0A6F010E0C6F0D6F82
:104B60000001A8EC0FF016BEF28E57A086EF2AF0D7
:104B7000166AF2BE168EF29E0201086B0001CEECA0
:104B80000DF016BEF28E0101E56B480EE46FE76B87
:104B9000580EE66F000102EC17F001524EE057820A
:104BA000020E0101E46F320EE56F7C0EE76F020E1C
:104BB000E66F00017AEC14F00101E46BE56B000193
:104BC0002FEC17F0EA6A2A0EE96EF2CFE4F1F29EBA
:104BD000000EBCEC0BF00A000900F550EE6E000967
:104BE000FBE10101E4BFF28E166AF2BE168EF29E60
:104BF000320E0201086F080E096F0B6B2A0E0A6F46
:104C0000010E0C6F0D6B0001A8EC0FF016BEF28EBA
:104C1000040E0101E46F166AF2BE168EF29EFA0EC1
:104C20000201086F000198EC0DF016BEF28E010132
:104C3000E42FF1D7000170EC1BF00101E56B480E89
:104C4000E46FE76B650EE66F000102EC17F00152AE
:104C50004EE05782020E0101E46F320EE56F7C0ECA
:104C6000E76F020EE66F00017AEC14F00101E46BCD
:104C7000E56B00012FEC17F0EA6A2A0EE96EF2CF1D
:104C8000E4F1F29E000ECEEC0BF00A000900F550A4
:104C9000EE6E0009FBE10101E4BFF28E166AF2BE7E
:104CA000168EF29E320E0201086F080E096F0B6B12
:104CB0002A0E0A6F010E0C6F0D6B0001A8EC0FF0AD
:104CC00016BEF28E040E0101E46F166AF2BE168E55
:104CD000F29EFA0E0201086F000198EC0DF016BE6C
:104CE000F28E0101E42FF1D7000170EC1BF00101FD
:104CF000E56B480EE46FE76B720EE66F000102ECA5
:104D000017F001524EE05782020E0101E46F320E9D
:104D1000E56F7C0EE76F020EE66F00017AEC14F08F
:104D20000101E46BE56B00012FEC17F0EA6A2A0E33
:104D3000E96EF2CFE4F1F29E000EE0EC0BF00A0017
:104D40000900F550EE6E0009FBE10101E4BFF28EAF
:104D5000166AF2BE168EF29E320E0201086F080E1F
:104D6000096F0B6B2A0E0A6F010E0C6F0D6B0001A1
:104D7000A8EC0FF016BEF28E040E0101E46F166A65
:104D8000F2BE168EF29EFA0E0201086F000198EC38
:104D90000DF016BEF28E0101E42FF1D7000170EC88
:104DA0001BF00101E56B480EE46FE76B7F0EE66FC9
:104DB000000102EC17F001524EE05782020E010191
:104DC000E46F320EE56F7C0EE76F020EE66F0001B6
:104DD0007AEC14F00101E46BE56B00012FEC17F0A5
:104DE000EA6A2A0EE96EF2CFE4F1F29E000EF3ECCD
:104DF0000BF00A000900F550EE6E0009FBE101011D
:104E0000E4BFF28E166AF2BE168EF29E320E0201D8
:104E1000086F080E096F0B6B2A0E0A6F010E0C6FDC
:104E20000D6B0001A8EC0FF016BEF28E040E01010E
:104E3000E46F166AF2BE168EF29EFA0E0201086F39
:104E4000000198EC0DF016BEF28E0101E42FF1D7AF
:104E5000000170EC1BF00101E56B480EE46FE76B9D
:104E60008C0EE66F000102EC17F001524EE0578203
:104E7000020E0101E46F320EE56F7C0EE76F020E49
:104E8000E66F00017AEC14F00101E46BE56B0001C0
:104E90002FEC17F0EA6A2A0EE96EF2CFE4F1F29EE7
:104EA000000E06EC0CF00A000900F550EE6E000949
:104EB000FBE10101E4BFF28E166AF2BE168EF29E8D
:104EC000320E0201086F080E096F0B6B2A0E0A6F73
:104ED000010E0C6F0D6B0001A8EC0FF016BEF28EE8
:104EE000040E0101E46F166AF2BE168EF29EFA0EEF
:104EF0000201086F000198EC0DF016BEF28E010160
:104F0000E42FF1D7000170EC1BF00101E56B480EB6
:104F1000E46FE76B990EE66F000102EC17F00152A7
:104F20004EE05782020E0101E46F320EE56F7C0EF7
:104F3000E76F020EE66F00017AEC14F00101E46BFA
:104F4000E56B00012FEC17F0EA6A2A0EE96EF2CF4A
:104F5000E4F1F29E000E18EC0CF00A000900F55086
:104F6000EE6E0009FBE10101E4BFF28E166AF2BEAB
:104F7000168EF29E320E0201086F080E096F0B6B3F
:104F80002A0E0A6F010E0C6F0D6B0001A8EC0FF0DA
:104F900016BEF28E040E0101E46F166AF2BE168E82
:104FA000F29EFA0E0201086F000198EC0DF016BE99
:104FB000F28E0101E42FF1D7000170EC1BF001012A
:104FC000E56B480EE46FE76BA60EE66F000102EC9E
:104FD00017F001524EE05782020E0101E46F320ECB
:104FE000E56F7C0EE76F020EE66F00017AEC14F0BD
:104FF0000101E46BE56B00012FEC17F0EA6A2A0E61
:10500000E96EF2CFE4F1F29E000E18EC0CF00A000B
:105010000900F550EE6E0009FBE10101E4BFF28EDC
:10502000166AF2BE168EF29E320E0201086F080E4C
:10503000096F0B6B2A0E0A6F010E0C6F0D6B0001CE
:10504000A8EC0FF016BEF28E040E0101E46F166A92
:10505000F2BE168EF29EFA0E0201086F000198EC65
:105060000DF016BEF28E0101E42FF1D7000170ECB5
:105070001BF00101E56B480EE46FE76BB30EE66FC2
:10508000000102EC17F001524EE05782020E0101BE
:10509000E46F320EE56F7C0EE76F020EE66F0001E3
:1050A0007AEC14F00101E46BE56B00012FEC17F0D2
:1050B000EA6A2A0EE96EF2CFE4F1F29E000E18ECD5
:1050C0000CF00A000900F550EE6E0009FBE1010149
:1050D000E4BFF28E166AF2BE168EF29E320E020106
:1050E000086F080E096F0B6B2A0E0A6F010E0C6F0A
:1050F0000D6B0001A8EC0FF016BEF28E040E01013C
:10510000E46F166AF2BE168EF29EFA0E0201086F66
:10511000000198EC0DF016BEF28E0101E42FF1D7DC
:10512000000170EC1BF00101E56B480EE46FE76BCA
:10513000C00EE66F000102EC17F001524EE05782FC
:10514000020E0101E46F320EE56F7C0EE76F020E76
:10515000E66F00017AEC14F00101E46BE56B0001ED
:105160002FEC17F0EA6A2A0EE96EF2CFE4F1F29E14
:10517000000E18EC0CF00A000900F550EE6E000964
:10518000FBE10101E4BFF28E166AF2BE168EF29EBA
:10519000320E0201086F080E096F0B6B2A0E0A6FA0
:1051A000010E0C6F0D6B0001A8EC0FF016BEF28E15
:1051B000040E0101E46F166AF2BE168EF29EFA0E1C
:1051C0000201086F000198EC0DF016BEF28E01018D
:1051D000E42FF1D7000170EC1BF00101E56B480EE4
:1051E000E46FE76BCD0EE66F000102EC17F00152A1
:1051F0004EE05782020E0101E46F320EE56F7C0E25
:10520000E76F020EE66F00017AEC14F00101E46B27
:10521000E56B00012FEC17F0EA6A2A0EE96EF2CF77
:10522000E4F1F29E000E18EC0CF00A000900F550B3
:10523000EE6E0009FBE10101E4BFF28E166AF2BED8
:10524000168EF29E320E0201086F080E096F0B6B6C
:105250002A0E0A6F010E0C6F0D6B0001A8EC0FF007
:1052600016BEF28E040E0101E46F166AF2BE168EAF
:10527000F29EFA0E0201086F000198EC0DF016BEC6
:10528000F28E0101E42FF1D7000170EC1BF0010157
:10529000E56B480EE46FE76BDA0EE66F000102EC97
:1052A00017F001524EE05782020E0101E46F320EF8
:1052B000E56F7C0EE76F020EE66F00017AEC14F0EA
:1052C0000101E46BE56B00012FEC17F0EA6A2A0E8E
:1052D000E96EF2CFE4F1F29E000E18EC0CF00A0039
:1052E0000900F550EE6E0009FBE10101E4BFF28E0A
:1052F000166AF2BE168EF29E320E0201086F080E7A
:10530000096F0B6B2A0E0A6F010E0C6F0D6B0001FB
:10531000A8EC0FF016BEF28E040E0101E46F166ABF
:10532000F2BE168EF29EFA0E0201086F000198EC92
:105330000DF016BEF28E0101E42FF1D7000170ECE2
:105340001BF00101E56B480EE46FE76BE70EE66FBB
:10535000000102EC17F001524EE05782020E0101EB
:10536000E46F320EE56F7C0EE76F020EE66F000110
:105370007AEC14F00101E46BE56B00012FEC17F0FF
:10538000EA6A2A0EE96EF2CFE4F1F29E000E18EC02
:105390000CF00A000900F550EE6E0009FBE1010176
:1053A000E4BFF28E166AF2BE168EF29E320E020133
:1053B000086F080E096F0B6B2A0E0A6F010E0C6F37
:1053C0000D6B0001A8EC0FF016BEF28E040E010169
:1053D000E46F166AF2BE168EF29EFA0E0201086F94
:1053E000000198EC0DF016BEF28E0101E42FF1D70A
:1053F000000170EC1BF057B289D0166AF2BE168E0F
:10540000F29E0201086B0001CEEC0DF016BEF28E8A
:10541000166AF2BE168EF29E010E0201086F096F27
:105420007F0E0A6F3F0E0B6F010E0C6F0D6F0001A8
:1054300047EC0FF016BEF28EEA6A2A0EE96EF2CF42
:10544000E4F1F29E000E2AEC0CF00A000900F5507F
:10545000EE6E0009FBE10101E4BFF28E166AF2BEB6
:10546000168EF29E0F0E0201086F080E096F0B6B6D
:105470002A0E0A6F020E0C6F0D6B0001A8EC0FF0E4
:1054800016BEF28EEA6A2A0EE96EF2CFE4F1F29EBF
:10549000000E3CEC0CF00A000900F550EE6E00091D
:1054A000FBE10101E4BFF28E166AF2BE168EF29E97
:1054B0001E0E0201086F096F0B6B2A0E0A6F020E97
:1054C0000C6F0D6B0001A8EC0FF016BEF28E030EF0
:1054D0000101E46FEE0EE56F7C0EE76F020EE66FE2
:1054E00000017AEC14F0060E0101E46F166AF2BEB8
:1054F000168EF29EFA0E0201086F000198EC0DF074
:1055000016BEF28E0101E42FF1D7FF000001F4EF87
:105510002BF0F86AD09E078E93988A88176A810EBE
:10552000AF6EA60EAC6E900EAB6E1A6A1B6A566A10
:10553000556A57905792F56BF46BF76BF66B010158
:10554000DE6BDF6BE06BE16BE36BE26B57945796BE
:105550005798C180C182C184C196C9D00200180089
:105560000009001C4B6172742049443A0001002A72
:105570000009003F4C59532D32303132005B005846
:1055800034453030303435303244333700344530F0
:1055900030303437303734344500343830304535E6
:1055A00031413842334300343830304535303444AB
:1055B0003837310034383030453530433644434392
:1055C00000343830304534463241434632003438B6
:1055D000303045344544394344440004C0300980E8
:1055E00042364542313134430004C03009804236EE
:1055F0004146344335350004C030098042364335D6
:10560000334234380004C0300980423739333232F3
:1056100030360004C03009804237393345384343BF
:1056200000C900F8312D4F677265746D656E6C6549
:1056300072204F646173692C322D416C616E20447D
:1056400065706F73752C332D536566204F646173DD
:10565000692C342D50726F6A65204F646173692C18
:10566000352D54656D697A6C696B204F646173697F
:105670002C362D5043422F4D656B616E696B204176
:10568000746C2E2C372D4861622E2041746C2E20B4
:105690004C61622E2C382D456E642E2041746C2E88
:1056A000204C61622E2C392D416C616E204769724D
:1056B0006973692C31302D42696C67697361796156
:1056C00072204C61622E2C31312D4D616B2E2041A8
:1056D000746C2E204C61622E2C31322D4F6C636D18
:1056E000652041746C2E204C61622E2C0000000E4F
:1056F000F86E550EF76E5C0EF66E0900F550006EF2
:10570000000A13E00900F550016EE8BE05D00F0B4A
:10571000EA6E0900F5CFE9FF01BC090001AC090000
:10572000F5CFEEFF004EE9D7F9D7F86A939A8A8A47
:10573000C190C182C184C186C19CC28CC29EC18EEF
:10574000C2809698C69A949A94889496010EC66ED2
:10575000000EC76ED190800ED56E3C0ED76EAF0E88
:10576000D66ECD6A000ECA6E000ECB6EB16AF00E18
:10577000BD169690969296948D6A000148EC14F0AE
:10578000320E0101E46F010EE56F7C0EE76F020E31
:10579000E66F00017AEC14F0010E0101E46F0001E4
:1057A000CBEF14F0F19CF288C00EF212000E016EE5
:1057B000C250C70B0110C26EC80E0101E46F000198
:1057C0006EEF15F0D3EF15F0860EF66E280EF76E1D
:1057D000AEEF16F00D0E9EA8FED7AD6E0A0E9EA877
:0C57E000FED7AD6E32EF25F0FDD70300C0
:020000040030CA
:0E00000000220E0E000181000FC00FE00F4025
:00000001FF
;PIC18F452
;CRC=43A3  CREATED="06-Oca-18 14:47"
